:020000040000FA
:1000000002EF00F0016B026B036B046B056B066B78
:10001000076B096B0A6B0B6B0C6B0D6B0E6B0F6B2D
:10002000106B116B126B136B146B156B166B176BDC
:10003000186B196B1A6B1B6B1C6B1D6B1E6B1F6B8C
:10004000206B806A010E926E0E0EC16EC280816AB4
:10005000000E936E300E946E010E036F36EC01F0BD
:10006000010EC26E3E0EC06E0D6B0C6BC08E320E5A
:10007000016F012F39EF00F0C28200000000C2B210
:100080003FEF00F0C3500D6FC4500C6F0C51016F67
:100090000D51026F000E0F6FE60E106F116B1051B5
:1000A000126F0F51136F021D1225026FD894D8B032
:1000B000132BD8B41181011D1325016FD8B4118100
:1000C000D89011B1D880021F011F01510C6F02514D
:1000D0000D6FD89002370137D89002370137D8908A
:1000E000023701370D510227D8B0012B0C510127DF
:1000F0000D510227D8B0012B0C510127500E106F63
:10010000000E0F6F0151136F0251146F016B026BE0
:100110001351D8A490EF00F01451D8B4C4EF00F0FC
:100120000F51D8A498EF00F01051D8B4C4EF00F0EC
:100130000F51135DD8A0C4EF00F0D8A4A5EF00F0D4
:100140001051145DD8A0C4EF00F0100E156F116BA4
:10015000126BD89014371337123711370F51115DC6
:10016000D8A4B5EF00F01051125DD8A0BFEF00F099
:100170001051125FD8A011070F51115FD8800237BC
:100180000137152FA9EF00F0016B02516408026FCF
:1001900002510E6F0E511D6FF1EC01F01D511A6FDF
:1001A0001E511B6F1F511C6F010E036FDDEC00F021
:1001B000010EC6EC01F030EF00F0010E056FBDEC52
:1001C00001F004A1EAEF00F00C0E60EC01F0010E6A
:1001D00060EC01F0800E60EC01F0480E64EC01F080
:1001E000550E64EC01F04D0E64EC01F0450E64EC2C
:1001F00001F0440E64EC01F0410E64EC01F0440E99
:1002000064EC01F0200E64EC01F0440E64EC01F0AB
:10021000450E64EC01F0200E64EC01F0530E64EC2A
:1002200001F0550E64EC01F0450E64EC01F04C0E4B
:1002300064EC01F04F0E64EC01F0C10E60EC01F0D3
:100240001C51300F64EC01F0C20E60EC01F01B5148
:10025000300F64EC01F0C30E60EC01F01A51300F66
:1002600064EC01F034EF01F000011200010E036FA5
:10027000056B0A0E07EC02F0300E5CEC01F00A0E82
:1002800007EC02F0300E5CEC01F0050E21EC02F000
:10029000300E5CEC01F0200E5CEC01F0200E5CEC0A
:1002A00001F0800E5CEC01F000011200010E07EC81
:1002B00002F0000100011200016F81949FEF01F034
:1002C000016F819469EF01F0016F0151D8B4140EF0
:1002D00081848186016F8198819A819C819E01A988
:1002E00073EF01F0818801AB77EF01F0818A01ADF6
:1002F0007BEF01F0818C01AF7FEF01F0818E819661
:100300000000000081868198819A819C819E01A1D4
:100310008BEF01F0818801A38FEF01F0818A01A5A5
:1003200093EF01F0818C01A797EF01F0818E819608
:1003300000000000818656EC01F000011200818669
:10034000016F8198819A819C819E01A9A9EF01F09A
:10035000818801ABADEF01F0818A01ADB1EF01F011
:10036000818C01AFB5EF01F0818E81960000000015
:10037000818656EC01F000011200046B055106194C
:10038000D8A404810551066F00011200076FD0EF59
:1003900001F000000000000000000000000000006C
:1003A0000A0E096F00000000630E0A6F00000000D3
:1003B0000000C80E0B6F000000000B2FDBEF01F0F8
:1003C0000000000000000A2FD6EF01F0000000003E
:1003D0000000092FD2EF01F0072FC9EF01F0000153
:1003E00012001F6B1E6B640E1D5FD8A0FBEF01F0A7
:1003F0001F2BF4EF01F01D270A0E1D5FD8A004EF9C
:1004000002F01E2BFDEF01F01D2700011200076F07
:1004100011EF02F0000000000000000000000000EA
:100420000000160E096F960E0A6F0A2F15EF02F0E4
:10043000092F13EF02F00000072F0AEF02F000016E
:100440001200076F2BEF02F0000000000000000018
:10045000000000000000F60E096F0000092F2DEFCC
:1004600002F000000000000000000000072F24EF51
:0604700002F00001120081
:020000040030CA
:0E000000C03CE0E0FFF99AFFFFFFFFFFFFFFAB
:0200000400F00A
:10000000FFFFFFFFFFFFFFFFFFFFFFFFFFFFFFFF00
:10001000FFFFFFFFFFFFFFFFFFFFFFFFFFFFFFFFF0
:10002000FFFFFFFFFFFFFFFFFFFFFFFFFFFFFFFFE0
:10003000FFFFFFFFFFFFFFFFFFFFFFFFFFFFFFFFD0
:10004000FFFFFFFFFFFFFFFFFFFFFFFFFFFFFFFFC0
:10005000FFFFFFFFFFFFFFFFFFFFFFFFFFFFFFFFB0
:10006000FFFFFFFFFFFFFFFFFFFFFFFFFFFFFFFFA0
:10007000FFFFFFFFFFFFFFFFFFFFFFFFFFFFFFFF90
:10008000FFFFFFFFFFFFFFFFFFFFFFFFFFFFFFFF80
:10009000FFFFFFFFFFFFFFFFFFFFFFFFFFFFFFFF70
:1000A000FFFFFFFFFFFFFFFFFFFFFFFFFFFFFFFF60
:1000B000FFFFFFFFFFFFFFFFFFFFFFFFFFFFFFFF50
:1000C000FFFFFFFFFFFFFFFFFFFFFFFFFFFFFFFF40
:1000D000FFFFFFFFFFFFFFFFFFFFFFFFFFFFFFFF30
:1000E000FFFFFFFFFFFFFFFFFFFFFFFFFFFFFFFF20
:1000F000FFFFFFFFFFFFFFFFFFFFFFFFFFFFFFFF10
:00000001FF
